:020000040800F2
:1000000018070020E1280008792700087B2700084E
:1000100000000000000000000000000000000000E0
:100020000000000000000000000000007D27000824
:1000300000000000000000007F2700088127000862
:100040001313000800000000CF1900080B1A000865
:10005000D3200008AB230008F72500087727000805
:10006000000000008F2800089B280008F9280008DD
:10007000FB280008FD280008FF28000800000000F9
:1000800001290008892700080000000093270008C4
:100090000329000805290008072900080929000884
:1000A0000B2900089D2700080D290008A727000834
:1000B000B127000838B5040014D0250078356868E9
:1000C000002803D12870200000F0A6FD24206860DD
:1000D00020680168012291430160200000F02AFAA3
:1000E000012801D1012032BD606A002802D0200021
:1000F00000F0A4FA20684168084A0A40426020687B
:100100008168082291438160FFE72068016801222D
:100110000A430260200000F0F7FA32BDFFF7FFFF4C
:10012000F1B584B01F0006465036F06A202861D130
:100130000C000FD068460280002A0BD0049880681B
:1001400080214901884207D104980069002803D121
:10015000E00701D501204EE0002575632120F06203
:1001600000F0C4FD010068460088308068460088C1
:1001700070803A000498806880235B01984209D11E
:1001800004980069002805D12500049F019202917E
:1001900004001AE02000F8E721780185641C11E0D2
:1001A00001980090029B00228021380000F014FB8F
:1001B00000281BD13868002CEED12988C905C90D4B
:1001C0000185AD1C7088401E708070880028E7D1C2
:1001D0003800029B019900910022402100F0FCFAB6
:1001E000002803D12020F062002004E02020F062EB
:1001F000032000E0022005B0F0BD70B58023C35895
:10020000202B25D100290BD0130009D0836880242E
:100210006401A34206D10369002B03D1CB0701D5AA
:10022000012070BD0023036603685B681B020CD5C8
:10023000EFF31083012484F3108804682568802676
:10024000F6042E43266083F3108800F011FB70BD86
:10025000022070BDF8B584B0040020680190C06928
:1002600021680968019A9268009225005835202279
:100270000A40029220220240039200264027A84A08
:1002800002400BD1039A002A0DD0029A002A0AD00C
:100290002969002901D0200088473EE1009AD20751
:1002A00002D4A04A0A407AD0C20707D5CA0505D5AC
:1002B0000122019B1A62EB6A1A43EA62820709D59E
:1002C000009AD20706D5022223681A62EA6A04233A
:1002D0001343EB620422104208D0009BDB0705D5D4
:1002E00023681A62EA6A02231343EB62082210426F
:1002F0000AD0029B002B02D1009BDB0704D52368A8
:100300001A62EB6A1A43EA627A01104007D0480188
:1003100005D520680262E86A20210143E962E86AA3
:10032000002832D00398002807D00298002804D073
:100330002969002901D020008847E86A2168896876
:10034000394002D12821014024D0200000F0F6FAE3
:1003500020688068074019D0EFF31080012181F3F5
:10036000108821688A6840239A438A6080F3108845
:10037000E86900280AD06C494163E86900F0DDFCB7
:10038000002802D0E869416B8847C6E0200000F0F1
:10039000F8FCC2E0200000F0F4FCEE62BDE0AA68C8
:1003A000012A00D098E01022104200D0114200D162
:1003B00092E0019802621020C0430121C9432268E3
:1003C000926817404BD0EA6913685B689BB2002BB8
:1003D000E4D05827E75BBB42E0DA6B809269202AC1
:1003E00035D0EFF310820092012282F31088226848
:1003F00013684E4F1F401760009A82F31088EFF386
:100400001082012383F3108823689F683940996024
:1004100082F31088EFF31081012282F310882268A2
:1004200093684027BB43936081F310882021A96221
:10043000AE60EFF31081012282F310882268136806
:100440001840106081F31088E86900F055FC022024
:10045000E8605820205A6988411A89B238E0582249
:10046000A25A6B88D21A6B461A806A88002A54D026
:100470006A461288002A50D0EFF3108201920122BE
:1004800082F3108822681368294F1F401760019A71
:1004900082F31088EFF31082012383F3108823681E
:1004A0009F683940996082F310882021A962AE606C
:1004B0002E61EFF31081012282F310882268136805
:1004C0001840106081F310880220E86068460188B7
:1004D000200000F057FC20E08022104207D00A40A4
:1004E00005D06969002918D02000884715E03840F8
:1004F00013D00F4011D0EFF31080012181F3108849
:1005000021680A6840239A430A6080F310882020FB
:1005100068626E61200000F036FC05B0F0BD00009E
:100520000F08000020010004AD090008FFFEFFFFD6
:10053000DFFEFFFFF8B505000026002428680168EB
:100540009D4A0A40A96811432A690A43696911430F
:10055000EA690A4302604168984A0A40E96811431F
:1005600041608168964A0A40A96911432A6A0A4390
:1005700082601022934988420FD193480068800717
:10058000800F0DD0022806D003D3032809D1022200
:1005900007E0042205E0082203E08C49884200D1EC
:1005A00000228B4F8B4880210902EB698B4221D1BD
:1005B000002A06D0022A18D0042A18D0082A04D00B
:1005C00037E000F046FE010034D06A684800510868
:1005D0004018110000F082FE01001039B94228D203
:1005E00007400007400F38431BE00100EDE700F033
:1005F00013FEE8E7002A06D0022A08D0042A13D006
:10060000082A14D015E000F024FE002812D06968F2
:100610004A08801800F062FE01001039B94208D281
:1006200080B22968C86005E000F0F6FDEDE708003B
:10063000EDE70124AE66EE662000F2BD2421415CA8
:10064000C90706D501684A68B04B1340826A1A434D
:100650004A602421415C890706D501684A68AC4B91
:100660001340C26A1A434A602421415C490706D5F7
:1006700001684A68A74B1340026B1A434A60242161
:10068000415C090706D501684A68A34B1340426BD9
:100690001A434A602421415CC90606D501688A686C
:1006A0009E4B1340826B1A438A602421415C890669
:1006B00006D501688A68134B1340C26B1A438A60DF
:1006C0002421415C490611D501684A68974B1340C3
:1006D000026C1A434A60026C80235B039A4205D184
:1006E0004A68934B1340426C1A434A602421415C90
:1006F000090606D501684A688E4B1340806C184382
:1007000048607047FFDFFFFFFEB50600370078370F
:100710000024FC6000F0EAFA0190202530680068AF
:10072000000717D584480090019B0022290430005F
:1007300000F052F800280DD0EFF31080012181F372
:10074000108831680A6880239A430A6080F3108811
:100750007D6026E030680068400725D57648009027
:10076000019B00226904300000F036F800281BD0FD
:10077000EFF31080012181F3108831680A68874BFC
:1007800013400B6080F31088EFF31080012181F398
:10079000108831688A6801239A438A6080F3108840
:1007A000BD603C700320FEBD7D60BD603466746634
:1007B0003C700020FEBD0000F369FFFFFFCFFFFF8C
:1007C000FFF4FFFF003801403010024000440040B9
:1007D000F0FF000000127A00FEB580273F010824D8
:1007E0000025060001916846027002933068C069D6
:1007F000019901400198814201D1012000E00020CF
:1008000069460978884231D108980021C943884255
:10081000ECD000F06BFA0299401A0899814201D39A
:10082000002901D10320FEBD306800684007DDD5F6
:100830003068C0692040306803D1C0693840D5D0E5
:1008400009E00462300000F079F830007830C460CC
:1008500005700120FEBD30680762300000F06EF8C0
:10086000300078302021C1600570DBE70020FEBD3C
:1008700070B54165010058310A804A8000230B6140
:100880008468FF2580225201944204D10469002C1F
:1008900006D1434C07E0002C07D10469002C01D19C
:1008A0008D8003E07F248C8000E08B80CB6222234C
:1008B0008B62EFF31083012484F310880468A56829
:1008C00001262E43A66083F31088836893420DD1DE
:1008D0000269002A0AD1334A0A61EFF3108101222A
:1008E00082F3108800680268202319E02E4A0A610A
:1008F00001690029F1D0EFF31081012282F3108801
:100900000068026890235B00EFE70000FFFFFDFF37
:10091000FFFFFEFFFFFFFBFFFF7FFFFFFFEFFFFF7C
:100920001343036081F31088002070BDFFFFEFFFC9
:10093000FFFF9FFFFFFFF7FFFFFFFF0110B5EFF382
:100940001081012282F3108802681368134C1C4046
:10095000146081F31088EFF31081012282F3108874
:10096000026893680124A343936081F31088016EA9
:1009700001290BD1EFF31081012282F31088026864
:1009800013681024A343136081F310882021802270
:10099000815000210166816610BD0000DFFEFFFF6F
:1009A000FF0100005D0A0008C109000880B5406A27
:1009B0000100523100220A810A8000F0E2F901BDF3
:1009C00070B50100583102688B6A222B41D1928C9C
:1009D0008B881340426D1370426D521C42654A88E9
:1009E000521E4A804A88002A37D1EFF31082012331
:1009F00083F3108803681C683F4D25401D6082F317
:100A00001088EFF31082012383F3108803689C6839
:100A10000125AC439C6082F3108820228A62002268
:100A20000A61CA6003685B681B020BD5EFF3108391
:100A3000012484F3108804682568304E2E40266017
:100A400083F310888B68012B00D159E000F031FE50
:100A500070BD906908210143916170BD70B50100BE
:100A6000583102688B6A222B41D1928C8B881340BB
:100A7000426D1380426D921C42654A88521E4A8024
:100A80004A88002A37D1EFF31082012383F31088BC
:100A900003681C68184D25401D6082F31088EFF331
:100AA0001082012383F3108803689C680125AC43FE
:100AB0009C6082F3108820228A6200220A61CA6048
:100AC00003685B681B020BD5EFF31083012484F3EA
:100AD000108804682568094E2E40266083F310882C
:100AE0008B68012B00D10BE000F0E3FD70BD906935
:100AF00008210143916170BDDFFEFFFFFFFFFFFB97
:100B00008A60EFF31081012282F310880268136873
:100B10001024A343136081F3108801681022CB696D
:100B2000134000D00A625821415A00F02BF970BDE1
:100B300081B0012065490A6802430A600A681040D2
:100B400000900098802040054A6802434A60496846
:100B500008400090009801B0704710B586B00400BE
:100B60001422002101A800F0D5FD206858498842D0
:100B700027D15848810C42680A43426042681140BC
:100B8000009100998021890202680A43026000688E
:100B9000014000910098E020019002200290002086
:100BA000039003210491059001A99020C00500F055
:100BB000BBFD00220021192000F0BDFE192000F02D
:100BC000BEFE06B010BD80B500684349434A90425E
:100BD0000ED110200A6802430A600968084000909C
:100BE000009800220221112000F0A5FE112010E043
:100BF0003B4A90420FD1880D0A6802430A60096897
:100C000008400090009800220321132000F093FE7A
:100C1000132000F094FE01BDF8B586B00400142244
:100C20000021684600F076FD26680120032102229B
:100C30004304284C00252B4FBE4220D18603676811
:100C40003743676067683E400596059E26681E43E9
:100C50002660246823400593059B4B020093019274
:100C600002950391049069469020C00500F05CFD58
:100C7000002203211B2000F05EFE1B2021E01A4F02
:100C8000BE4220D1A6681E43A660A6681E400596F7
:100C9000059E26681E432660246823400593059B15
:100CA0000C230093019202950391049069469020D1
:100CB000C00500F039FD002203211C2000F03BFE9E
:100CC0001C2000F03CFE07B0F0BD000018100240F0
:100CD00000300140141002401C100240001000407F
:100CE00000200040003801400044004001484068B6
:100CF000704700BFA000002010B500212122825CB7
:100D0000022A05D00422826320228154012010BDD2
:100D1000026813680E24A343136002681368012459
:100D2000A34313600122036C9C40C36B5C602123CE
:100D3000C25420228154002010BD70B5002200242E
:100D400001212123C35C022B03D0042282630124EE
:100D500015E003681D680E26B5431D6003681D6815
:100D60008D431D60036C01259D40C36B5D60212395
:100D7000C15420214254416B002900D088472000F3
:100D800070BD704770477047FEB5060019D0AD4C76
:100D90003078C00717D58027BF0260680C2101405A
:100DA000042909D060680C210140082941D16068FC
:100DB0007908084088423CD12068074003D0706819
:100DC000002800D19BE1307880071AD5F827FF432F
:100DD00060680C21014007D060680C21014008299F
:100DE0005AD16068C00357D42068800703D5F068E3
:100DF000012800D083E1206807403069C0003843F3
:100E000020603078000778D50227F0690028606AF2
:100E100064D0012101436162FFF768FF0500606A49
:100E200038406AD1FFF762FF401B0228F7D9032040
:100E3000FEBD73687908012B09D0B348B34A002B73
:100E400009D0052B07D120688A0002432260206860
:100E50000143216005E021680A40226021680840C2
:100E60002060706800280BD0FFF740FF0500206865
:100E70003840A8D1FFF73AFF401B6528F7D3D6E7E3
:100E8000FFF734FF0500206838409CD0FFF72EFFA5
:100E9000401B6528F7D3CAE7F068002820680ED009
:100EA000012101432160FFF721FF05002068800731
:100EB000A1D4FFF71BFF401B0228F7D9B7E7012198
:100EC00088432060FFF712FF05002068800798D54F
:100ED000FFF70CFF401B0228F7D9A8E70121884340
:100EE0006062FFF703FF0500606A384005D0FFF736
:100EF000FDFE401B0228F7D999E7042730683840E7
:100F000062D000200190B806E169014008D1E16992
:100F10000143E161E16908400090009801200190DF
:100F20007B480068C00512D479480068A10D0143D0
:100F300077480160FFF7DAFE050075480068C005D4
:100F400005D4FFF7D3FE401B6528F6D36FE7B068E2
:100F5000012808D0002801D1206A09E00528206A6C
:100F600006D138432062206A01210143216205E055
:100F7000012188432062206AB8432062A44800907F
:100F8000B06800280CD0FFF7B1FE0500206A80078A
:100F900013D4FFF7ABFE401B00998842F6D346E717
:100FA000FFF7A4FE0500206A800706D5FFF79EFE26
:100FB000401B00998842F6D339E70198002803D0F6
:100FC000E06994490140E1613078C0061DD570693F
:100FD000F825ED43012837D1606B07436763606BE9
:100FE000012101436163FFF781FE0700606B800709
:100FF00005D4FFF77BFEC01B0228F7D917E7606B0B
:101000000540B069C00028436063306A002878D08A
:1010100061680C220A40082A5CD08027BF049249EC
:101020000228206848D101402160FFF75FFE0500DB
:101030002068384022D0FFF759FE401B0228F7D91C
:10104000F5E600BF001002400421C9438842606BEE
:1010500002D101406163D2E707436763606B0121FE
:1010600088436063FFF742FE0500606B8007CCD5C4
:10107000FFF73CFE401B0228F7D9D8E6E06A0F21B3
:101080008843F16A0143E162606878490140B06ACF
:101090000843716A01436160206879080143216057
:1010A000FFF724FE0500206838402AD1FFF71EFE16
:1010B000401B0228F7D9BAE601402160FFF716FE6F
:1010C0000500206838401CD0FFF710FE401B0228A6
:1010D000F7D9ACE6012812D06068E16A802252029A
:1010E0000240736A9A420AD10907090FF26A9142D3
:1010F00005D1F02189030140B06A814201D001206D
:10110000FEBD0020FEBD0000FFFFFBFFFFFFFEFF56
:1011100000700040F8B5040060D0009154480068A9
:10112000C107C90F009881420CD2514801680122C1
:101130009143009A0A4302600068C107C90F0098F2
:1011400081424BD121684B4D022001420CD049070E
:1011500004D56968E022D2000A436A606968F02217
:101160009143A2680A436A6001272168394025D06B
:101170006168012902D12868800303E0022903D1B4
:101180002868800103D429E02A68104026D06868C6
:101190000322904301436960FFF7A8FD06006868D9
:1011A0000C21014060688000814207D0FFF79EFD5E
:1011B000801B17498842F2D30320F2BD2C480099C6
:1011C00002683A4091420BD20168B943009A0A433F
:1011D0000260006807400098874201D00120F2BDFC
:1011E0002078400705D5686823490140E068084336
:1011F000686000F011F821496A681206120F895CD4
:10120000C8401F490860032000F0BEFB0020F2BD6B
:1012100089130000FFFFFFEF1A4B19681A480C22D0
:101220000A40082A00D0704730B50F2219A48D0C4F
:101230001540645D9B6AC90307D500BF19A11A4018
:10124000895C00F04BF8604330BD20000F494843F3
:1012500030BD0B4800680E490A4A12685205520F09
:10126000895CC84070470000FFFFFFFEFFFFC2FF20
:101270000020024000100240FFF8FFFFD0280008C5
:10128000AC0000200410024000127A0000093D006A
:10129000F028000802030405060708090A0B0C0DD4
:1012A0000E0F10100102030405060708090A0B0CB3
:1012B0000D0E0F10CA0F00D0494203105A400DD036
:1012C00004B500D3404200F009F8009AD20701D3D8
:1012D0004942124200D5404204BD0000094214D0E8
:1012E00088420FD30122030C01D100041204002311
:1012F00000185B418B4200D35B1A5241F8D31900AE
:101300001000704701000020704708B500F05EFB38
:1013100008BDFEE79948704738B5994D69462800E1
:1013200000F070FB68464078944CA0280DD0A128AE
:101330000BD001202070A12060701720A070A42085
:10134000E0702100280000F043FB009820606078E6
:10135000A02803D1FA20400000F058FBFA208000BA
:1013600000F054FB31BDA8487047F8B5A74CA84F12
:10137000802636023100380000F0A0FA002808D19B
:1013800000F05BFB002804D10121200000F06DFB80
:10139000F1BD7A4D3100380000F090FA002811D1EB
:1013A00000F04BFB01280DD1287D032807DB02202C
:1013B00000F080FB6878A12802D103206875F1BD98
:1013C0000420FBE70021200000F04FFB6B7D002490
:1013D000002B13D06A48A4211722032B02D0042B20
:1013E00003D00BE02C70A02302E001232B70A1237B
:1013F0006B70AA70E970290000F0EAFAAC82002054
:1014000000F058FBF1BDF8B55C4A127E002A1BD1F2
:101410000E0007009025ED058024640001222100C4
:10142000280000F051FA012000F0F0FA0023DB431D
:1014300032003900B148FEF773FE00222100280077
:1014400000F042FA0020F2BD0120F2BD80B50E216D
:1014500000F078FB01BDF4B504000D001F0028006A
:10146000FFF7F4FFF720454E69460978491E012928
:1014700004D9C91E08D0EF390DD01CE02C7031788A
:101480006970A870022004E02C7031786970A8702F
:101490000420E8700FE02C7030786870FE20A8708F
:1014A000F320E8709648CA00821892796B181A7176
:1014B000491C0A29F7DB39002800FFF7A4FF0028A0
:1014C00003D0012000F0F6FA03E000F0F3FA012067
:1014D000B0758021C9014E4800F0FCF9F1BD70B52E
:1014E0000520264C2178227991422CD1A179FE2920
:1014F00001D0F72927D10021E279042A02D0F32A6A
:1015000002D070BDA17570BD7D4A951D63181B7A10
:10151000CE00AB55491C0A29F8DB6178A12905D119
:101520000E23042221001C31002006E0A0290AD14C
:101530000E23042221001C310120FFF78CFF201D07
:10154000FFF784FF042070BDC900002802D00128E5
:1015500002D005E06B4800E0694840188079704788
:1015600000207047C900022802D0032802D070472B
:10157000644800E06248401882717047B40200205D
:1015800000FC000870B50026224DA87D002811D06F
:1015900000F050FAC00702D4E87D401CE875E87DF1
:1015A000032804DB012000F085FAEE7502E000203C
:1015B00000F080FA287E012813D1FFF790FF04285D
:1015C0000BD100244E48E1004018827981880068E0
:1015D00000F07AF9641C0A2CF4DB2E7600F07AF81D
:1015E00070BD00F027FA0621FFF764FE002909D13B
:1015F0006878A02806D10E23F32229001C3101208F
:10160000FFF729FF70BD0000C8020020240200205F
:1016100000080048B4020020FEB50A2200216846F6
:1016200000F078F8052500246F463648E1004018A0
:101630008188006800F042F906000A2000F0E6F90F
:10164000012E01D1012000E0002038553E5DE1B2BD
:101650000020FFF779FFB04205D03200E1B202204E
:10166000FFF780FF0425641C0A2CDEDB2800FEBD8A
:1016700070B5FFF7D1FF04281AD10024204D214E68
:10168000E000B11D0A5CA91D0A5428188188006871
:1016900000F01AF9641C0A2CF2DB1B484178A029DF
:1016A00006D10E23F32201001C310120FFF7D3FEE7
:1016B00070BD00681549884200D0704780B5012090
:1016C000114908768103124800F004F9002000F067
:1016D000F1F901BD10B50C4C0E21201D00F032FABD
:1016E0000022802149009020C00500F0EDF80E2274
:1016F000211D0248FEF781FD10BD000014010020ED
:101700005000002000000020B402002000380140FA
:101710000008004810B50400080011000200200075
:1017200000F012FA200010BDFFB500220F23029333
:101730002CE0052402E06B4DA842FAD16D462D78CD
:10174000AC403443019D2C60674CA668DC432640C6
:101750004D68ED0200D51E43634DAE60EE68264035
:101760004F68BF0200D51E43EE606E6826404F688A
:10177000BF0300D51E436E602E6834404E68F603EA
:1017800002D526001C0034432C60521C0B681C0040
:10179000D44000D191E0012494402340F5D055007D
:1017A0000327AF40FE4301964E68B707BF0F012FD6
:1017B00003D0B607B60F022E0ED18768019E3E40B9
:1017C000CF68AF40374387604668A6434C68E7065A
:1017D000FF0F97403743476094006E4674700C7952
:1017E000A407A40F032C26D0C468019E26408C6851
:1017F000AC403443C4600C79A407A40F022C1AD166
:10180000D408A4000419266A03966E4677781C262D
:101810003E406F463E70039EB446029F6E46367849
:10182000B7406646BE43B4460F696E463678B74049
:1018300066463743276207680324019E3E404F688F
:101840002740BC462F006546BD40354305604D68C6
:1018500026042E4099D00125244E36682E43234F6E
:101860003E603E4636682E400196019E204E970807
:10187000BF00F6190196019E366803966E4677788A
:101880000C263E406F463E70039EB446029F6E4655
:101890003678B7406646BE439027FF05B84201D16F
:1018A00000244BE7134FB84201D1012446E7124D03
:1018B000A84200D03FE7022440E7FFBD006908408E
:1018C00000D00120C0B27047002A01D0816170476A
:1018D0008162704742690B0013401B049143194316
:1018E00081617047000C004800040140181002405C
:1018F00008000140000400480008004810B5C2007C
:1019000018231340FF249C40E2438907090E9940A5
:10191000030004D418489B089B00C01806E0174B2E
:101920000007000F083880088000181803681A4064
:101930001143016010BD80B5FFF7E0FF01BD01005C
:1019400005D40121C006C00E81400D4801607047DA
:1019500010B5401E80214904884201D3012010BDEA
:10196000084C606003210020C043FFF7C7FF002040
:10197000A0600721216010BD00E400E01CED00E044
:1019800000E100E010E000E038B505000D4CFA2061
:1019900080002178FFF7A2FC01000B480068FFF7E8
:1019A0009DFCFFF7D5FF00280AD1042D08D20022A4
:1019B00029000020C043FFF7BEFFA560002032BD14
:1019C000012032BDA0000020AC0000207047FEE7DF
:1019D00038B504000D0000F0FEF809480021016050
:1019E00044600121816001000C3100F065F92A6832
:1019F00000232100022000F0ADF800F0FBF831BD1B
:101A000000030020006808607047FEE738B5050055
:101A1000FFF76CF904000020C043854202D004485F
:101A200000782D18FFF762F9001BA842FAD331BDE8
:101A3000A0000020144800787047144800787047D0
:101A400080B500681249884203D1FFF78CFC017809
:101A500006E01049884207D10B480178652901DA70
:101A6000491C00E00021017001BD80B5012903D1AE
:101A700000F0C3F9012002E000F0E3F9002003497F
:101A8000087001BD000000001303002014030020B3
:101A9000001000400020004080B5012A07D1002935
:101AA00002D100F08AF901BD00F0A7F901BD00F0F4
:101AB000C8F901BD214908707047F8B5FFF72AFC45
:101AC00006001E4C2078002803D0012801D1FFF722
:101AD00001FE0025FFF7AEFF002800D16570707889
:101AE000174E8027BF01A0280DD1FFF7A3FF617813
:101AF000401A01281FDDFFF79DFF6070390030009C
:101B0000FFF7E8FEF1BDA12815D1FFF793FF61783B
:101B1000401A012809DBFFF78DFF6070A078401C98
:101B2000A07039003000FFF7D5FEA078052802DB51
:101B3000FFF7D0FDA570F1BD0000000010030020EC
:101B400000080048002200BF094202D0491E42544A
:101B5000FCD17047F1B582B00F0014001D00504851
:101B6000007E012801D10220FEBD01264C490E76DF
:101B70003D4800F051F8010029D10299012901D115
:101B8000012204E0022901D1022200E004223B00EC
:101B900026002F0000931500002400E0641CAC42D6
:101BA00015DA30003900220100F07EFA81B2009887
:101BB0006200801800F025F82B4800F02DF8394914
:101BC000096801229143374A11600100E6D00021E3
:101BD000334A1176FEBD002034498022CB68134081
:101BE00007D0334B0B60334B0B60C9680A4000D001
:101BF000012070472B48016880220A4302600020C0
:101C0000704710B50022264BDA61264A136801247A
:101C10001C431460018010BD70B50500FFF766F825
:101C20000600214C2068C0070CD50020C043854227
:101C3000F8D0002D04D0FFF759F8801B8542F1D26F
:101C4000032070BD20202168014000D02060206862
:101C5000C00602D42068400703D500F007F8012031
:101C600070BD002070BD000050C3000030B50022E0
:101C70000B4810230C490C681C4004D0C269022494
:101C80001443C461102204230C681C4006D0C469AC
:101C900001252543C5611000042202430A6030BDBE
:101CA000E0020020102002400C20024004200240EC
:101CB00023016745AB89EFCDF3B581B00121012642
:101CC0002A4C227E012A01D10220FEBD00902176FD
:101CD000274D284F0098006801280FD13800FFF7E2
:101CE0009BFF002831D100F034F83800FFF794FF53
:101CF0000600286804218843286026E03800FFF7A2
:101D00008BFF002821D102980021C943016000996E
:101D10004E680290012001E051027618009989680E
:101D20008902009A526889188E420DD2300000F064
:101D300023F83800FFF770FF2968022291432960D9
:101D40000100E9D002990E600600002020763000E4
:101D5000FEBD00200549C8610548016804220A4308
:101D60000260016840220A4302607047E0020020DE
:101D70001020024050C300000021064AD1610649EC
:101D80000A68022313430B6048600868402202433C
:101D90000A607047E00200201020024010B50400E5
:101DA00001D1012010BD3D20205C002804D13C2140
:101DB00060542000FEF707FF5DE03D21415C0129F2
:101DC00001D00120704702213D2281540268012187
:101DD000394B9A4205D0394B9A4202D0384B9A423D
:101DE00004D192685207520F062A04D00268126882
:101DF000114300680160002070473D21415C0129CA
:101E000001D00120704702213D2281540268012146
:101E1000D3680B43D3600268274B9A4205D0274B07
:101E20009A4202D0264B9A4205D192685207520F2D
:101E3000062A04D00268126811430068016000207D
:101E4000704710B502680121C943D3680B40D360C5
:101E50000268136A174C1C4008D1126A194B1340D0
:101E600004D10268126811400268116001213D220C
:101E70008154002010BD02203D216054211D2068A6
:101E800000F0CBF80120462160543E2160543F21F0
:101E900060544021605441216054422160544321E8
:101EA000605444216054452160543D216054002019
:101EB00010BD000011110000002C01400004004082
:101EC0000040014044040000F8B5040020680025EB
:101ED00002260169314015D0C168314012D002217B
:101EE000C9430161012121778069800703D0200067
:101EF00000F0E9F805E0200000F0E6F8200000F02E
:101F0000E4F82577206804270169394016D0C168B4
:101F1000394013D00421C943016126778069C0216B
:101F20008900014003D0200000F0CDF805E020003A
:101F300000F0CAF8200000F0C8F8257720680826CD
:101F40000169314014D0C168314011D00821C94322
:101F500001612777C069800703D0200000F0B3F843
:101F600005E0200000F0B0F8200000F0AEF8257782
:101F70002068102102690A4016D0C268114013D0AF
:101F80001021C94301612677C069C0218900014041
:101F900003D0200000F097F805E0200000F094F84E
:101FA000200000F092F825772068012102690A409C
:101FB00008D0C268114005D00121C9430161200049
:101FC000FFF73EFD2068802102690A4008D0C26800
:101FD000114005D08021C9430161200000F076F84E
:101FE0002068402102690A4008D0C268114005D02B
:101FF0004021C9430161200000F069F820682021D8
:1020000002690A4008D0C268114005D02021C943A6
:102010000161200000F05CF8F1BDF0B506681B4AD4
:102020001B4B1C4C1C4DA84201D0A04206D170276E
:10203000BE4337004E683E43A8420BD0A04209D0B1
:10204000164CA04206D0984204D0904202D0154CC3
:10205000A04203D1124C3440CE6826438024A643CC
:102060004C69344304608C68C4620C688462A84282
:1020700006D0984204D0904202D00A4A904201D140
:102080000969016301214161F0BD00000044014084
:102090000040014000040040002C014000200040AE
:1020A000FFFCFFFF00480140D2B2203A03D30800F2
:1020B000D040002170472032D141D040484091406B
:1020C000D14048407047704770477047704770472D
:1020D0007047FEE7F8B586B000F068F900F02EF919
:1020E000142200216846FFF715FB8021090386486A
:1020F00002680A4302600268114005910599802137
:10210000C90302680A4302600268114005910599FB
:102110008021890202680A43026002681140059129
:1021200005998021C90202680A43026000680140E3
:1021300005910598C024E401744E0022210030006E
:10214000FFF7C2FB002272499020C005FFF7BCFBDD
:10215000704F002270493800FFF7B6FB0094112041
:102160000190012402940025039569463000FFF791
:10217000DBFAE00300900195029469463000FFF716
:10218000D3FA03200090019502260296694690201A
:10219000C005FFF7C9FA102000900194029503953D
:1021A00069469020C005FFF7BFFA0094019402959C
:1021B000039569463800FFF7B7FA58480090019533
:1021C000029669463800FFF7AFFA992000020090A6
:1021D00001940296039569469020C005FFF7A4FA82
:1021E000FE20800000900194029603956946380015
:1021F000FFF79AFA4A4C4B4820608220400060600A
:10220000A560E020C000E060256165613002A0614A
:10221000E56125626562A5620720E062256308200A
:102220006063200000F0D2F8002801D000F0BBF875
:102230003D48606696208001A066E5662567656773
:102240000C27A767E5678020255026008436356077
:10225000756020006430FDF72DFF002801D000F0EC
:10226000A2F83248B06696208001F066356775673F
:10227000B567F76782204000261835607560B56045
:10228000F5602000EC30FDF715FF002801D000F0CC
:102290008AF827483067FA2040017067B5672548FB
:1022A000F067C620400026188027376018382018AD
:1022B000FFF774FD002801D000F075F81E48306368
:1022C000FA2040017063B5631A48F0633564B7645F
:1022D000DE20400024182000FFF760FD002801D018
:1022E00000F061F8FFF718F8FFF7F4F90122012177
:1022F0002000FFF7D1FBFFF738F8FFF743F9FFF7AE
:10230000B7F9FFF7DAFBF6E71410024000080048BF
:102310001099000000040048F903000006FC0000CA
:10232000B00000200030014000380140004400406F
:1023300000100040E70300000020004038B594B0D2
:102340003022002108A8FFF7E5F910220021684695
:10235000FFF7E0F91022002104A8FFF7DBF90124C0
:10236000089409940025109508A8FEF70DFD002893
:1023700001D000F018F80720009001940295039511
:1023800000216846FEF7C6FE002801D000F00BF8D9
:102390000494069504A800F02FF9002801D000F05D
:1023A00002F815B030BD72B6FEE7FEE780B506480C
:1023B000016810220A4302600320FFF7E5FAFEF7E6
:1023C000B7FB002002BD000000200240F8B5040069
:1023D00001D10120F2BD82277F000025606A00281C
:1023E00004D16068B84203D0E56101E02561656110
:1023F000A56226005C367078002803D13570200075
:10240000FEF7ABFB02207070206801684022914308
:102410000160E368E022D200F0200001934203D97A
:102420000021834204D104E080214901934200D07D
:10243000A562012263681F40BC46A76884231B0273
:102440003B4067463B439C46277C02231F40634634
:102450001F43636913403B439C46A76953021F40D7
:1024600063461F43BC46277F38233B4067463B43B8
:102470009C462023E75C80231F4063461F43BC46E5
:10248000A36A57033B4067463B4327683B60A36909
:102490001F0C04231F40BC462423E35C10273B4051
:1024A00067463B439C463423E75C08231F40634652
:1024B0001F43E368184038430143206841602068A7
:1024C000C169034B0B40C361756072700020F2BD9F
:1024D000FFF7FFFFFEB504002068416800918168A6
:1024E000402541220A40012A06D1009A2A4003D001
:1024F0002000E16C8847F7BD8A0706D5009A1206CE
:1025000003D52000216D8847F7BDB02252000A4054
:1025100064D02022009B134060D0002329420DD0BC
:102520005D26A65D032E4FD0266E0427374327660F
:102530000193C668019686680196019E01260A40AD
:102540000BD0226E3243226601938068019020688E
:102550000068A843226810600198C80508D5206E5D
:102560000821014321660193206880680190019849
:10257000206E002832D020684168E02291434160FB
:102580005D2026540098800725D0206841680322EA
:1025900091434160A06D124E002808D04663A06DA3
:1025A000FEF7CBFB002802D0206E28432066606D2A
:1025B000002813D04663606DFEF7BFFB00280DD0E6
:1025C000206E05432566F7BD0093C16800918068C1
:1025D00000900098F7BD200000F08CF8F7BD0000D7
:1025E000E525000880B5406A002146228152C18756
:1025F00000F080F801BDFEE7F8B50400374D206813
:10260000C00356D500200090802040052968014075
:1026100008D1296801432960296808400090009882
:10262000012000902E4F3868C00510D43868A90DDD
:1026300001433960FEF75AFB06003868C00506D42E
:10264000FEF754FB801B6528F7D30320F2BDC020A2
:10265000800069680140234F00291ED06268104045
:1026600081421AD0686838406968802252020A4361
:102670006A6069681C4A0A406A606860C0070CD5D5
:10268000FEF734FB06006868800706D4FEF72EFBD1
:10269000801B16498842F6D3D7E768680740606810
:1026A000384368600098002803D02868104901402A
:1026B00029602078C00705D5686903218843A1688F
:1026C000014369612078800605D568691021884337
:1026D000E168014369610020F2BD00001C10024066
:1026E00000700040FFFCFFFFFFFFFEFF89130000AA
:1026F000FFFFFFEF7047F1B40168411843685808C5
:102700000A1800988068DB0701D54B46C018914233
:102710002DD00D78491C032403262E4002D10E78BB
:10272000F61C491C2B090F2B07D10B780F33491CC2
:1027300003E00F78491C0770401C761EF9D1002B6E
:10274000E5D00E78491CAD082C40032C01D10C7843
:10275000491C24023419654244190025AE1E9E42CC
:10276000D5D02678641C0670401C6D1CF6E70098D6
:102770000C30F2BC7047FEE7FEE7FEE7704770479B
:1027800080B500F025F801BD80B50C48FFF79CFB33
:1027900001BD80B50A48FFF797FB01BD80B5094828
:1027A000FFF798FE01BD80B50748FDF753FD01BD59
:1027B00080B50648FDF74EFD01BD00002402002053
:1027C0006C020020B0000020140100209C010020B9
:1027D000024841680278891841607047A0000020D3
:1027E00070B40123002413E00168001D194202D0D7
:1027F0004D466918491E0C60091D121F042AFAD2A1
:102800000D00960701D50C80AD1C1A4000D02C702D
:102810000268001D002AE7D170BC704710B5074957
:1028200079441831064C7C44163404E0081D0A68CB
:10283000891888470100A142F8D110BD08000000A6
:10284000240000009DFFFFFF68020000B000002090
:1028500000000000A3FEFFFFB60000009C00000087
:102860000000002000F00DF8002801D0FFF7D6FF8F
:1028700000BF00BF002000BF00BFFFF72BFC00F02F
:1028800002F80120704780B500F002F801BDFEE7B4
:102890000746384600F002F8FBE7FEE780B500BFC8
:1028A00000BF024A11001820ABBEFBE72600020061
:1028B0000548014603B4684680F3098800BF00BF9D
:1028C00000BF00BFFFF7CEFFA5EDF5FE704700008B
:1028D00000000000000000000102030406070809D0
:1028E0000148804701480047CD280008B12800086A
:1028F0000000000001020304FEE7FEE7FEE7FEE73A
:10290000FEE7FEE7FEE7FEE7FEE7FEE7FEE7300450
:102910000000004801000123480208820408520414
:102920000811044108520808521008522008524069
:1029300008328049412852002852001811205208BC
:1029400050521008522008524008628070520150C4
:0C2950001189519C3183000200127A00B2
:04000005080028B116
:00000001FF
