:020000040800F2
:1000000080060020FD230008B1220008B32200086A
:1000100000000000000000000000000000000000E0
:10002000000000000000000000000000B5220008F1
:100030000000000000000000B7220008B9220008FC
:10004000B30E00080000000057140008AB190008A8
:10005000E7190008AF220008AB230008B723000807
:100060000000000015240008C12200081724000821
:10007000192400081B2400081D24000800000000AB
:100080001F240008CB22000800000000D522000831
:100090002124000823240008252400082724000820
:1000A000292400082B2400082D2400082F240008F0
:1000B0003124000838B5040014D02500783568686C
:1000C000002803D12870200000F0E6FB242068609F
:1000D00020680168012291430160200000F0BAF815
:1000E000012801D1012032BD606A002802D0200021
:1000F00000F034F920684168084A0A4042602068EC
:100100008168082291438160FFE72068016801222D
:100110000A430260200000F087F932BDFFF7FFFFBD
:10012000F1B584B01F0006465036F06A202861D130
:100130000C000FD068460280002A0BD0049880681B
:1001400080214901884207D104980069002803D121
:10015000E00701D501204EE0002575632120F06203
:1001600000F0F0FB01006846008830806846008897
:1001700070803A000498806880235B01984209D11E
:1001800004980069002805D12500049F019202917E
:1001900004001AE02000F8E721780185641C11E0D2
:1001A00001980090029B00228021380000F0A4F901
:1001B00000281BD13868002CEED12988C905C90D4B
:1001C0000185AD1C7088401E708070880028E7D1C2
:1001D0003800029B019900910022402100F08CF927
:1001E000002803D12020F062002004E02020F062EB
:1001F000032000E0022005B0F0BD70B58023C35895
:10020000202B25D100290BD0130009D0836880242E
:100210006401A34206D10369002B03D1CB0701D5AA
:10022000012070BD0023036603685B681B020CD5C8
:10023000EFF31083012484F3108804682568802676
:10024000F6042E43266083F3108800F0ABF970BDEE
:10025000022070BDF8B5050000260024286801685A
:100260009D4A0A40A96811432A690A4369691143F2
:10027000EA690A4302604168984A0A40E968114302
:1002800041608168964A0A40A96911432A6A0A4373
:1002900082601022934988420FD1934800688007FA
:1002A000800F0DD0022806D003D3032809D10222E3
:1002B00007E0042205E0082203E08C49884200D1CF
:1002C00000228B4F8B4880210902EB698B4221D1A0
:1002D000002A06D0022A18D0042A18D0082A04D0EE
:1002E00037E000F09AFD010034D06A6848005108F8
:1002F0004018110000F0C2FD01001039B94228D2A7
:1003000007400007400F38431BE00100EDE700F015
:1003100067FDE8E7002A06D0022A08D0042A13D095
:10032000082A14D015E000F078FD002812D0696882
:100330004A08801800F0A2FD01001039B94208D225
:1003400080B22968C86005E000F04AFDEDE70800CA
:10035000EDE70124AE66EE662000F2BD2421415C8B
:10036000C90706D501684A68894B1340826A1A4357
:100370004A602421415C890706D501684A68854B9B
:100380001340C26A1A434A602421415C490706D5DA
:1003900001684A68804B1340026B1A434A6024216B
:1003A000415C090706D501684A687C4B1340426BE3
:1003B0001A434A602421415CC90606D501688A684F
:1003C000774B1340826B1A438A602421415C890673
:1003D00006D501688A68134B1340C26B1A438A60C2
:1003E0002421415C490611D501684A68954B1340A8
:1003F000026C1A434A60026C80235B039A4205D167
:100400004A68914B1340426C1A434A602421415C74
:10041000090606D501684A688C4B1340806C184366
:1004200048607047FFDFFFFFFEB5060037007837F2
:100430000024FC6000F086FA0190202530680068F6
:10044000000717D582480090019B00222904300044
:1004500000F052F800280DD0EFF31080012181F355
:10046000108831680A6880239A430A6080F31088F4
:100470007D6026E030680068400725D5744800900C
:10048000019B00226904300000F036F800281BD0E0
:10049000EFF31080012181F3108831680A688D4BD9
:1004A00013400B6080F31088EFF31080012181F37B
:1004B000108831688A6801239A438A6080F3108823
:1004C000BD603C700320FEBD7D60BD603466746617
:1004D0003C700020FEBD0000F369FFFFFFCFFFFF6F
:1004E000FFF4FFFF0038014030100240004400409C
:1004F000F0FF000000127A00FEB580273F010824BB
:100500000025060001916846027002933068C069B8
:10051000019901400198814201D1012000E00020B1
:1005200069460978884231D108980021C943884238
:10053000ECD000F007FA0299401A0899814201D3E1
:10054000002901D10320FEBD306800684007DDD5D9
:100550003068C0692040306803D1C0693840D5D0C8
:1005600009E00462300000F085F830007830C460A3
:1005700005700120FEBD30680762300000F07AF897
:10058000300078302021C1600570DBE70020FEBD1F
:10059000FFFFFDFFFFFFFEFFFFFFFBFFFF7FFFFFF2
:1005A000FFEFFFFF38B5050069652C005834228045
:1005B0000020E0622221A162E169002918D06A4B83
:1005C0008B626A49E369D9626949E3691963E16940
:1005D000486313006A6D29682431E06900F092FCD9
:1005E000002805D01020E0622020A062012032BD4A
:1005F000286900280CD0EFF31080012181F31088C6
:1006000029680A6880235B0013430B6080F310881D
:10061000EFF31080012181F3108829688A68012393
:1006200013438B6080F31088EFF31080012181F376
:10063000108829688A68402313438B6080F31088F0
:10064000002032BDFFFFEFFFFFFF9FFFFFFFF7FF1F
:10065000FFFFFF0110B5EFF31081012282F3108834
:1006600002681368C024A343136081F3108820211B
:10067000C16710BD10B5EFF31081012282F310881D
:1006800002681368134C1C40146081F31088EFF368
:100690001081012282F31088026893680124A34329
:1006A000936081F31088016E01290BD1EFF3108163
:1006B000012282F31088026813681024A343136098
:1006C00081F31088202180228150002101668166FB
:1006D00010BD0000DFFEFFFF70B50100486A020098
:1006E000583200238969202936D000215180EFF348
:1006F0001081012484F31088046825683A4E2E4046
:10070000266081F31088EFF31081012484F31088B0
:100710000468A5680126B543A56081F31088EFF34E
:100720001081012484F310880468A5684026B5432D
:10073000A56081F3108820219162916801290BD175
:10074000EFF31081012484F31088046825681026D3
:10075000B543256081F31088D3609168012900D1E9
:1007600057E000F03EFE70BDD9060008750700088E
:100770009907000880B5406A010058310122CA601B
:100780008968012905D15821415A490800F060FEC5
:1007900001BD00F05EFE01BDF8B5446AE06F2500C2
:1007A0007C356968009127005237002621688968E6
:1007B000090606D5212804D1002038802000FFF743
:1007C00049FF20688068400606D50098222803D19A
:1007D0003E812000FFF74EFFA86810210143A96069
:1007E000200000F037FEF1BDFFFEFFFF8A60EFF34F
:1007F0001081012282F31088026813681024A34339
:10080000136081F3108801681022CB69134000D077
:100810000A625821415A00F01BFE70BD81B00120D0
:1008200040490A6802430A600A6810400090009834
:10083000802040054A6802434A60496808400090A9
:10084000009801B0704780B500683749374A904238
:100850000ED110200A6802430A600968084000901F
:10086000009800220321112000F013FE112010E057
:100870002F4A90420FD1880D0A6802430A60096826
:1008800008400090009800220321132000F001FE90
:10089000132000F002FE01BD70B586B004001422E2
:1008A000002101A800F02CFE20682249884237D19F
:1008B00021488021C90142680A43426042681140D0
:1008C000009100998021890202680A430260006851
:1008D000014000910098C020C000019002200290C9
:1008E00000250395032004900120059001A9902084
:1008F000C00500F00FFE114E114830607560B56004
:100900008020F060356175612020B061F5613000B4
:1009100000F0D0FA002801D001F022F86667746276
:1009200006B070BD181002401C10024000100040BC
:10093000002000400038014014100240C80100208F
:100940003000024001484068704700BFA00000200E
:10095000FEB5060019D0AD4C3078C00717D58027FA
:10096000BF0260680C210140042909D060680C2195
:100970000140082941D160687908084088423CD18B
:100980002068074003D07068002800D19BE13078D0
:1009900080071AD5F827FF4360680C21014007D073
:1009A00060680C21014008295AD16068C00357D4FF
:1009B0002068800703D5F068012800D083E1206813
:1009C00007403069C000384320603078000778D590
:1009D0000227F0690028606A64D001210143616246
:1009E000FFF7B0FF0500606A38406AD1FFF7AAFF41
:1009F000401B0228F7D90320FEBD73687908012B3C
:100A000009D0B348B34A002B09D0052B07D1206881
:100A10008A000243226020680143216005E02168CA
:100A20000A402260216808402060706800280BD0CE
:100A3000FFF788FF050020683840A8D1FFF782FF44
:100A4000401B6528F7D3D6E7FFF77CFF0500206839
:100A500038409CD0FFF776FF401B6528F7D3CAE7E4
:100A6000F068002820680ED0012101432160FFF7C3
:100A700069FF050020688007A1D4FFF763FF401BD2
:100A80000228F7D9B7E7012188432060FFF75AFF12
:100A900005002068800798D5FFF754FF401B022807
:100AA000F7D9A8E7012188436062FFF74BFF0500F3
:100AB000606A384005D0FFF745FF401B0228F7D990
:100AC00099E704273068384062D000200190B806CA
:100AD000E169014008D1E1690143E161E169084050
:100AE00000900098012001907B480068C00512D456
:100AF00079480068A10D014377480160FFF722FFA4
:100B0000050075480068C00505D4FFF71BFF401BB2
:100B10006528F6D36FE7B068012808D0002801D116
:100B2000206A09E00528206A06D138432062206A3D
:100B300001210143216205E0012188432062206AEE
:100B4000B8432062A4480090B06800280CD0FFF79A
:100B5000F9FE0500206A800713D4FFF7F3FE401B5F
:100B600000998842F6D346E7FFF7ECFE0500206ABD
:100B7000800706D5FFF7E6FE401B00998842F6D3B2
:100B800039E70198002803D0E06994490140E16108
:100B90003078C0061DD57069F825ED43012837D19E
:100BA000606B07436763606B012101436163FFF77B
:100BB000C9FE0700606B800705D4FFF7C3FEC01BAA
:100BC0000228F7D917E7606B0540B069C0002843D9
:100BD0006063306A002878D061680C220A40082AD5
:100BE0005CD08027BF0492490228206848D1014088
:100BF0002160FFF7A7FE05002068384022D0FFF7EC
:100C0000A1FE401B0228F7D9F5E600BF0010024004
:100C10000421C9438842606B02D101406163D2E77D
:100C200007436763606B012188436063FFF78AFEB7
:100C30000500606B8007CCD5FFF784FE401B0228BF
:100C4000F7D9D8E6E06A0F218843F16A0143E162EF
:100C5000606878490140B06A0843716A0143616085
:100C60002068790801432160FFF76CFE05002068C9
:100C700038402AD1FFF766FE401B0228F7D9BAE6B2
:100C800001402160FFF75EFE0500206838401CD05F
:100C9000FFF758FE401B0228F7D9ACE6012812D016
:100CA0006068E16A802252020240736A9A420AD165
:100CB0000907090FF26A914205D1F0218903014029
:100CC000B06A814201D00120FEBD0020FEBD0000BF
:100CD000FFFFFBFFFFFFFEFF00700040F8B50400C0
:100CE00060D0009154480068C107C90F0098814244
:100CF0000CD25148016801229143009A0A430260D4
:100D00000068C107C90F009881424BD121684B4D43
:100D1000022001420CD0490704D56968E022D200C4
:100D20000A436A606968F0229143A2680A436A60D4
:100D300001272168394025D06168012902D128683E
:100D4000800303E0022903D12868800103D429E04D
:100D50002A68104026D068680322904301436960E6
:100D6000FFF7F0FD060068680C2101406068800014
:100D7000814207D0FFF7E6FD801B17498842F2D376
:100D80000320F2BD2C48009902683A4091420BD2F0
:100D90000168B943009A0A4302600068074000985E
:100DA000874201D00120F2BD2078400705D5686850
:100DB00023490140E0680843686000F011F82149C8
:100DC0006A681206120F895CC8401F490860032038
:100DD00000F0C8FD0020F2BD89130000FFFFFFEF07
:100DE0001A4B19681A480C220A40082A00D070478A
:100DF00030B50F2219A48D0C1540645D9B6AC903A0
:100E000007D500BF19A11A40895C00F037F860438C
:100E100030BD20000F49484330BD0B4800680E49E3
:100E20000A4A12685205520F895CC8407047000098
:100E3000FFFFFFFEFFFFC2FF002002400010024044
:100E4000FFF8FFFFEC230008AC0000200410024074
:100E500000127A0000093D000C240008020304057A
:100E6000060708090A0B0C0D0E0F101001020304EF
:100E700005060708090A0B0C0D0E0F10094214D0C5
:100E800088420FD30122030C01D100041204002375
:100E900000185B418B4200D35B1A5241F8D3190012
:100EA0001000704701000020704708B500F07CFD7D
:100EB00008BDFEE710B5040001D1012010BD0220DD
:100EC00021216054206801680D4A0A40616811437D
:100ED000A2680A43E168114322690A436169114328
:100EE000A2690A43E16911430160200000F0B3F8F0
:100EF0000020A06301212122A1542021605410BDB3
:100F00000FC0FFFFF2B50400002000252021615C26
:100F1000012901D10220F2BD01262027E655022138
:100F20002127E75D012F20D12127E155A06320680B
:100F30000168B14301600099200000F07BF820684F
:100F4000E16A0029016803D00E220A43026007E02B
:100F50000A220A430260206801680422914301606A
:100F6000206801680E43066002E02022A05402259A
:100F70002800F2BDFEB5C16B0968019101680A68DD
:100F8000009220220423019C056C0426AE402640DA
:100F900011D0009C1C400ED00C68224002D10A687F
:100FA0009A430A60016C8B40C16B4B60C16A002997
:100FB0003FD08847F7BD012302240025019EB44697
:100FC000066C0227B7406646374016D0009E264082
:100FD00013D00E68324005D10A680A26B2430A606F
:100FE00021214354016C8C40C16B4C60202145543D
:100FF000816A00291DD08847F7BD08226446066C27
:101000000827B740274014D0009C224011D00A681E
:101010000E24A2430A60016C01228A40C16B4A601F
:1010200083632121435420214554016B002900D0C2
:101030008847F7BD30B50124056CAC40C56B6C60CA
:10104000046863604068102802D1A260E16030BD8E
:10105000A160E26030BD10B5040020680549401869
:101060001421FFF70BFF800020640348E06310BDEC
:1010700000000000F8FFFDBF000002409F487047DD
:1010800038B59F4D6946280000F0AAFC68464078B4
:101090009A4CA0280DD0A1280BD001202070A120AF
:1010A00060701720A070A420E0702100280000F0DC
:1010B0007DFC009820606078A12801D0A02801D193
:1010C00000F0A6F931BDA548C07D7047A44870471F
:1010D000F8B5A44CA44F802636023100380000F049
:1010E000E3FA002808D100F08DFC002804D101218A
:1010F000200000F0A3FCF1BD804D3100380000F06D
:10110000D3FA002816D100F07DFC012812D1287DE9
:10111000032809DB022000F0B5FC6878A12801D182
:10112000032000E004206875287D022827DA0520C6
:101130006875F1BD0021200000F080FC6B7D00246B
:10114000002B18D06E48A4211722032B04D012D3F1
:10115000052B0ED003D30EE02C70A02302E0012358
:101160002B70A1236B70AA70E970290000F01EFC9F
:1011700001E000F09BF9AC82002000F083FCF1BD9F
:101180005E4AD27D002A00D07047F8B50E000700F5
:101190009025ED058024640001222100280000F044
:1011A00089FA032000F0C0FC0023DB433200390041
:1011B000A148FEF7B5FF00222100280000F07AFACE
:1011C000F1BD80B50E2100F0C3FC01BDF8B50400EF
:1011D0000D0017001E002800FFF7F3FFF720474916
:1011E0007F1E012F04D9FF1E08D0EF3F0DD01DE058
:1011F0002C7009786970A870022004E02C700978BE
:101200006970A8700420E87010E02C70087868708D
:10121000FE20A870F320E87000218848CA008218D8
:1012200092796B181A71491C0A29F7DB31002800E2
:10123000FFF7A6FF002000F025FC8021C9014A48E5
:1012400000F03EFAF1BD38B505242C48017802794A
:1012500091421CD18179FE2901D0F72917D10021B3
:10126000C279022A04D0042A05D0F32A05D00EE060
:1012700000F00BFC0BE0817509E0704A941D4318E7
:101280001B7ACD006355491C0A29F8DB0424200091
:1012900032BDC900002802D0012802D005E068480C
:1012A00000E0664840188079704700207047C90008
:1012B000022802D0032802D07047614800E05F484E
:1012C0004018827170470D48C17D012900D07047D8
:1012D00010B500240021C175FFF7B5FF04280AD11D
:1012E0005648E100401882798188006800F0E2F9F0
:1012F000641C0A2CF4DB10BD000000000C0200206E
:1013000000FC0008FEB50A220021684600F0F8F84B
:10131000052500246F464A48E1004018818800688E
:1013200000F0C2F90600012000F0FEFB012E01D101
:10133000012000E0002038553E5DE1B20020FFF7BB
:10134000A8FFB04205D03200E1B20220FFF7AFFFA4
:101350000425641C0A2CDEDB2800FEBD0C020020E4
:10136000200200203801002000080048F8B5354D63
:101370000026FFF7C7FF042819D100242F4FE000F3
:101380002F49891D0A5CB91D0A54381881880068E4
:1013900000F090F9641C0A2CF1DB6878A02806D1D3
:1013A0000E23F32229002C310120FFF70FFF68786C
:1013B000A02815D100F023FB297E401A0A280AD163
:1013C00000F01DFB28760E23F32229002C3101208A
:1013D000FFF7FCFEF1BD00F012FB002800D12E76D5
:1013E000F1BD00681849884200D0704710B5154C0F
:1013F0000E2221001C31201D00F0B2FB0120E075FF
:101400008103124800F05CF9002000F03BFB10BDA6
:1014100010B50C4C20001C30FFF7D3FE00228021B9
:1014200049009020C00500F045F90E2221001C3132
:101430000148FEF7E2FE10BDB00000205000002081
:10144000000000200C020020003801400008004885
:10145000704770477047FEE710B5C200182313406D
:10146000FF249C40E2438907090E9940030004D4FD
:101470001D489B089B00C01806E01C4B0007000F8E
:10148000083880088000181803681A40114301606A
:1014900010BD80B5FFF7E0FF01BD010005D40121BB
:1014A000C006C00E8140124801607047BFF34F8FE5
:1014B000104811490860BFF34F8F00BFFDE710B51A
:1014C000401E80214904884201D3012010BD0B4CED
:1014D000606003210020C043FFF7BEFF0020A06032
:1014E0000721216010BD000000E400E01CED00E0D9
:1014F00000E100E00400FA050CED00E010E000E07F
:1015000010B50400080011000200200000F022FBCA
:10151000200010BDFFB500220F2302932CE005240C
:1015200002E06B4DA842FAD16D462D78AC403443B1
:10153000019D2C60674CA668DC4326404D68ED0297
:1015400000D51E43634DAE60EE6826404F68BF0273
:1015500000D51E43EE606E6826404F68BF0300D57D
:101560001E436E602E6834404E68F60302D5260096
:101570001C0034432C60521C0B681C00D44000D16A
:1015800091E0012494402340F5D055000327AF405B
:10159000FE4301964E68B707BF0F012F03D0B60771
:1015A000B60F022E0ED18768019E3E40CF68AF4035
:1015B000374387604668A6434C68E706FF0F9740AD
:1015C0003743476094006E4674700C79A407A40FEB
:1015D000032C26D0C468019E26408C68AC4034435E
:1015E000C4600C79A407A40F022C1AD1D408A4005B
:1015F0000419266A03966E4677781C263E406F468D
:101600003E70039EB446029F6E463678B7406646EB
:10161000BE43B4460F696E463678B74066463743D8
:10162000276207680324019E3E404F682740BC465E
:101630002F006546BD40354305604D6826042E40A9
:1016400099D00125244E36682E43234F3E603E46F6
:1016500036682E400196019E204E9708BF00F6196D
:101660000196019E366803966E4677780C263E40BA
:101670006F463E70039EB446029F6E463678B74072
:101680006646BE439027FF05B84201D100244BE7D0
:10169000134FB84201D1012446E7124DA84200D0B1
:1016A0003FE7022440E7FFBD0069084000D0012069
:1016B000C0B27047002A01D08161704781627047D3
:1016C00042690B0013401B04914319438161704729
:1016D000000C0048000401401810024008000140BE
:1016E0000004004800080048F8B586B000F052FA3F
:1016F00000F0FCF8142200216846FFF701FF80206B
:1017000000036F4E31680143316031680840059035
:1017100005988020C003316801433160316808407A
:10172000059005988020800231680143316031685E
:101730000840059005988020C0023168014331605F
:101740003168084005900598C024E4015D4F0022EF
:1017500021003800FFF7AEFF00225B499020C00552
:10176000FFF7A8FF002259495948FFF7A3FF00944B
:101770001120019001250295002403946946380048
:10178000FFF7C8FEE803009001940295694638000F
:10179000FFF7C0FE032000900194022702976946DC
:1017A0009020C005FFF7B6FE10200090019502942E
:1017B000039469469020C005FFF7ACFE00950195A3
:1017C0000294039469464248FFF7A4FE4148009002
:1017D0000194029769463E48FFF79CFE992000025B
:1017E000009001950297039469469020C005FFF789
:1017F00091FEFE20800000900195029703946946B7
:101800003348FFF787FE3068284330603068054072
:1018100000950098002200210A20FFF73AFE0A20D6
:10182000FFF73BFE2C4D2D48286096208001686014
:10183000AC60EC602C610C206861AC61EC612C62E6
:101840006C622800FEF736FC002801D000F088F812
:101850002E00883622483060FA2080017060B46023
:101860002048F0608027B761300000F0A3F900281D
:1018700001D000F075F81C48B064FA208001F064D3
:10188000346518487065B46537662C00D034200084
:1018900000F090F9002801D000F062F8FFF7F0FBAB
:1018A00001220121200000F0DFF8FFF711FCFFF713
:1018B0000AFDFFF75BFD00F0ECF800F095F8F4E7A7
:1018C000141002400008004810990000F9030000BD
:1018D0000004004806FC0000B00000200038014071
:1018E00000100040E70300000020004070B594B0F5
:1018F0003022002108A8FFF703FE102200216846CD
:10190000FFF7FEFD1022002104A8FFF7F9FD0124D6
:10191000089409940226109620041190002512952F
:10192000139508A8FFF714F8002801D000F018F864
:101930000720009001960295039500216846FFF765
:10194000CDF9002801D000F00BF80494069504A806
:1019500000F0B6FA002801D000F002F814B070BD13
:1019600072B6FEE738B505000D4CFA2080002178EC
:10197000FFF784FA01000B480068FFF77FFAFFF7D2
:101980009EFD00280AD1042D08D200222900002043
:10199000C043FFF77EFDA560002032BD012032BDAF
:1019A000A0000020AC0000207047FEE738B504001E
:1019B0000D0000F044FB0948002101604460012152
:1019C000816001000C3100F0ABFB2A68002321008C
:1019D000022000F0F3FA00F041FB31BD6802002064
:1019E000006808607047FEE71B484088BD21490138
:1019F000884200D0704780B5FFF758FD01BD1648FA
:101A00000078704715480078704780B50068144921
:101A1000884204D1FFF75AFB0178491C0CE01149B8
:101A200088420AD10C480178491CCAB2642A03DBF7
:101A30004188491C41800021017001BD80B5012908
:101A400003D100F0E6F8012002E000F006F90020E2
:101A50000249087001BD0000780200207F020020CA
:101A6000001000400020004080B5012A07D1002965
:101A700002D100F0AEF801BD00F0CBF801BD00F0DE
:101A8000ECF801BD26490870704700202449887091
:101A90007047F8B5FFF7F2FA0600214C20780025D0
:101AA000002804D0012802D1FFF7B2FC2570FFF70F
:101AB000A6FF002800D1657070781A4FA0280ED1BB
:101AC000FFF79DFF6178401A012826DDFFF797FF99
:101AD0006070802189013800FFF7F2FDF1BDA12877
:101AE0001BD1FFF78CFF6178401A01280ADBFFF752
:101AF00086FF6070A078401CA070802189013800AA
:101B0000FFF7DEFDA078022807DDFFF7DCFA0028EA
:101B100003D17078A12800D1A570F1BD00000000AC
:101B20007C0200200008004838B50500FEF70AFFD7
:101B300004000020C043854202D0044800782D18DC
:101B4000FEF700FF001BA842FAD331BDA000002021
:101B5000002200BF094202D0491E4254FCD1704706
:101B600070B4103A03D378C9103A78C0FBD2530747
:101B700001D318C918C001D508C908C0D20704D3B9
:101B80000B880380891C801C002A01D50B78037008
:101B900070BC704780B50648016810220A43026095
:101BA0000320FFF7DFFEFEF739FE002002BD000034
:101BB0000020024010B5040001D1012010BD3D20DD
:101BC000205C002804D13C2160542000FEF73BFE3D
:101BD0005DE03D21415C012901D0012070470221D7
:101BE0003D22815402680121394B9A4205D0394B7C
:101BF0009A4202D0384B9A4204D192685207520F4F
:101C0000062A04D0026812681143006801600020AF
:101C100070473D21415C012901D00120704702211C
:101C20003D22815402680121D3680B43D3600268CE
:101C3000274B9A4205D0274B9A4202D0264B9A4214
:101C400005D192685207520F062A04D00268126822
:101C50001143006801600020704710B5026801213F
:101C6000C943D3680B40D3600268136A174C1C4009
:101C700008D1126A194B134004D10268126811404E
:101C80000268116001213D228154002010BD022014
:101C90003D216054211D206800F0CBF80120462131
:101CA00060543E2160543F216054402160544121E2
:101CB00060544221605443216054442160544521C2
:101CC00060543D216054002010BD0000111100003F
:101CD000002C01400004004000400140440400008A
:101CE000F8B504002068002502260169314015D0AE
:101CF000C168314012D00221C9430161012121771D
:101D00008069800703D0200000F07CFA05E0200005
:101D100000F079FA200000F077FA25772068042790
:101D20000169394016D0C168394013D00421C94334
:101D3000016126778069C0218900014003D020001D
:101D400000F060FA05E0200000F05DFA200000F0ED
:101D50005BFA2577206808260169314014D0C168F4
:101D6000314011D00821C94301612777C06980073C
:101D700003D0200000F046FA05E0200000F043FA0E
:101D8000200000F041FA25772068102102690A40FE
:101D900016D0C268114013D01021C94301612677C3
:101DA000C069C0218900014003D0200000F02AFA58
:101DB00005E0200000F027FA200000F025FA257742
:101DC0002068012102690A4008D0C268114005D08C
:101DD0000121C94301612000FFF717FE206880211F
:101DE00002690A4008D0C268114005D08021C94369
:101DF0000161200000F009FA2068402102690A40D0
:101E000008D0C268114005D04021C94301612000BB
:101E100000F0FCF92068202102690A4008D0C2685D
:101E2000114005D02021C9430161200000F0EFF9E5
:101E3000F1BDF0B506681B4A1B4B1C4C1C4DA8425B
:101E400001D0A04206D17027BE4337004E683E4302
:101E5000A8420BD0A04209D0164CA04206D098420E
:101E600004D0904202D0154CA04203D1124C344011
:101E7000CE6826438024A6434C69344304608C68B2
:101E8000C4620C688462A84206D0984204D0904292
:101E900002D00A4A904201D10969016301214161DE
:101EA000F0BD00000044014000400140000400403B
:101EB000002C014000200040FFFCFFFF00480140D3
:101EC000F8B50400374D2068C00356D500200090B7
:101ED000802040052968014008D129680143296014
:101EE0002968084000900098012000902E4F386823
:101EF000C00510D43868A90D01433960FEF722FDF2
:101F000006003868C00506D4FEF71CFD801B652856
:101F1000F7D30320F2BDC020800069680140234F41
:101F200000291ED06268104081421AD0686838408B
:101F30006968802252020A436A6069681C4A0A4042
:101F40006A606860C0070CD5FEF7FCFC0600686894
:101F5000800706D4FEF7F6FC801B16498842F6D3AC
:101F6000D7E76868074060683843686000980028D1
:101F700003D028681049014029602078C00705D5A2
:101F8000686903218843A16801436961207880065C
:101F900005D5686910218843E16801436961002023
:101FA000F2BD00001C10024000700040FFFCFFFF6B
:101FB000FFFFFEFF89130000FFFFFFEFF1B582B0C6
:101FC0000F0014001D005048007E012801D102209E
:101FD000FEBD01264C490E763D4800F051F8010047
:101FE00029D10299012901D1012204E0022901D15C
:101FF000022200E004223B0026002F00009315007F
:10200000002400E0641CAC4215DA300039002201E3
:1020100000F0FEF881B200986200801800F025F808
:102020002B4800F02DF83949096801229143374ABD
:1020300011600100E6D00021334A1176FEBD002078
:1020400034498022CB68134007D0334B0B60334BAD
:102050000B60C9680A4000D0012070472B48016816
:1020600080220A4302600020704710B50022264BF0
:10207000DA61264A136801241C431460018010BDF4
:1020800070B50500FEF75EFC0600214C2068C00715
:102090000CD50020C0438542F8D0002D04D0FEF7B7
:1020A00051FC801B8542F1D2032070BD20202168A5
:1020B000014000D020602068C00602D4206840079C
:1020C00003D500F007F8012070BD002070BD0000AE
:1020D00050C3000030B500220B4810230C490C6897
:1020E0001C4004D0C26902241443C461102204239A
:1020F0000C681C4006D0C46901252543C561100049
:10210000042202430A6030BD480200201020024031
:102110000C2002400420024023016745AB89EFCD2B
:10212000F3B581B0012101262A4C227E012A01D17A
:102130000220FEBD00902176274D284F00980068B0
:1021400001280FD13800FFF79BFF002831D100F0A4
:1021500034F83800FFF794FF06002868042188430C
:10216000286026E03800FFF78BFF002821D1029875
:102170000021C943016000994E680290012001E0EE
:1021800051027618009989688902009A5268891864
:102190008E420DD2300000F023F83800FFF770FFB8
:1021A00029680222914329600100E9D002990E605A
:1021B0000600002020763000FEBD00200549C861E1
:1021C0000548016804220A430260016840220A436C
:1021D00002607047480200201020024050C30000F7
:1021E0000021064AD16106490A68022313430B60A5
:1021F00048600868402202430A6070474802002095
:102200001020024070477047704770477047704712
:10221000D2B2203A03D30800D040002170472032C8
:10222000D141D04048409140D14048407047F1B43E
:1022300001684118436858080A1800988068DB074D
:1022400001D54B46C01891422DD00D78491C03246E
:1022500003262E4002D10E78F61C491C2B090F2BA9
:1022600007D10B780F33491C03E00F78491C077026
:10227000401C761EF9D1002BE5D00E78491CAD0824
:102280002C40032C01D10C78491C240234196542DE
:1022900044190025AE1E9E42D5D02678641C0670D7
:1022A000401C6D1CF6E700980C30F2BC7047FEE74E
:1022B000FEE7FEE77047704780B500F017F801BDF4
:1022C00080B50748FEF756FE01BD80B50548FFF70B
:1022D00007FD01BD80B50448FFF702FD01BD000008
:1022E000C801002038010020800100200248416818
:1022F0000278891841607047A000002070B4012363
:10230000002413E00168001D194202D04D466918EF
:10231000491E0C60091D121F042AFAD20D009607EF
:1023200001D50C80AD1C1A4000D02C700268001D35
:10233000002AE7D170BC704710B5074979441831BD
:10234000064C7C44163404E0081D0A688918884746
:102350000100A142F8D110BD0800000024000000D7
:102360009DFFFFFFD0010000B00000200000000032
:10237000BFFEFFFFBE0000009C0000000000002028
:1023800000F00DF8002801D0FFF7D6FF00BF00BF16
:10239000002000BF00BFFFF7A7F900F002F80120FE
:1023A000704780B500F002F801BDFEE707463846E9
:1023B00000F002F8FBE7FEE780B500BF00BF024A6D
:1023C00011001820ABBEFBE72600020005480146BD
:1023D00003B4684680F3098800BF00BF00BF00BF98
:1023E000FFF7CEFFA5EDF5FE7047000000000000EE
:1023F00000000000010203040607080901488047A5
:1024000001480047E9230008CD2300080000000030
:1024100001020304FEE7FEE7FEE7FEE7FEE7FEE754
:10242000FEE7FEE7FEE7FEE7FEE7FEE7FEE7FEE784
:10243000FEE7300400000048010001234802088242
:1024400004085204081104410852080852100852A6
:102450002008524008328049412852002852001872
:102460001120520850521008522008524008628031
:10247000705201501189519C3183000200127A0080
:04000005080023CDFF
:00000001FF
